:020000020000FC
:0200000029C015
:0200040095C0A5
:10000800CDC01895189518951895189518951895A0
:0E00180018951895189518951895189518951F
:10005400000000000000000044E04EBF4FE54DBF2B
:1000640090E0BB9AC39802E009BFD2D004E636D030
:100074000EE406D101E604D103E602D109E600D17B
:1000840003E7FED00EE6FCD009E6FAD00AE6F8D083
:1000940000E2F6D003E5F4D007E5F2D007E3F0D0B0
:1000A400A3D00000000078940000000026D40000D3
:1000B400000000000000FBCF2F932FB72F930CBF3D
:1000C4002CE123BF012F25D028E123BF20E028BB4A
:1000D40006E40CD02F912FBF2F9108952F9324E184
:1000E4002A95F1F70A95D9F72F9108951F932F9325
:1000F4001FB71F9311272227239527FFFDCF1395A1
:1001040014FFF9CF0A95B1F71F911FBF2F911F91CB
:1001140008951F931FB71F93102F02E3E7DF1A956B
:10012400E1F700001F911FBF1F9108950F930FB7B0
:100134000F93939592FD91E000B302FD29C00AE06C
:10014400D5DF00B302FD24C0E2D00EE399D0092F1D
:100154000A9521F00A9521F00A9521F0E9D004C00E
:1001640004D102C01BD100C0BFD0092F0A9521F0D1
:100174000A9521F00A9521F0F8D004C00FD102C0ED
:10018400D7D000C000B302FD03C00AE0AFDFFACF4E
:10019400789400000000FDCF0F910FBF0F911895C8
:1001A4000F930FB70F9300B303FD0BC00AE09EDF5C
:1001B40000B303FD06C000B303FD03C00AE096DFED
:1001C400FACF7894092F0A9521F00A9521F00A951F
:1001D40021F0FDD0F7CFB8D2F5CF8FD3F3CFF2CF44
:1001E4000F910FBF0F9118950F938A98929A8B983D
:1001F400939A05B7077F077F02600E7F04BF0BB792
:10020400006800640BBF0AB7006C0ABF0F91089521
:100214000F930FB70F93A09AA19AA29AA39AA49AA4
:10022400A59AA898A99808E261DFA99AAA9AAB9A14
:10023400AC98AD98000006E0A99858DFA99A000090
:100244000AE0A9984BDFA99A00000AE0A99846DFC2
:10025400A99AAA98000006E0A99840DF0BE210D002
:1002640006E03CDF01E00CD002E040DF0FE008D004
:1002740006E034DFA89A0AE00F910FBF0F910895AA
:100284001F931FB71F93102FA99A14FFAA9814FD48
:10029400AA9A15FFAB9815FDAB9A16FFAC9816FDFC
:1002A400AC9A17FFAD9817FDAD9A01E00000A9982C
:1002B40015DFA99A10FFAA9810FDAA9A11FFAB980E
:1002C40011FDAB9A12FFAC9812FDAC9A13FFAD98D6
:1002D40013FDAD9A01E00000A99800DF0AE0FEDEFC
:1002E4001F911FBF1F9108950F930FB70F9304E63B
:1002F400F5DEA89808E2FADE00ECC2DF04E6EEDEE2
:10030400A89A08E2F3DE0F910FBF0F9108950F939F
:100314000FB70F93A89808E2E9DE01E0B1DF04E625
:10032400DDDEA89A08E2E2DE0F910FBF0F91089577
:100334000F930FB70F930DE4A3DF01E6A1DF02E7EC
:100344009FDF09E69DDF0FE69BDF00E299DF04E70C
:1003540097DF08E695DF05E693DF0DE691DF05E616
:100364008FDF0F910FBF0F9108950F930FB70F9366
:1003740003E586DF04E784DF01E682DF02E780DF4E
:1003840000E27EDF07E57CDF01E67ADF02E778DF63
:1003940003E776DF0F910FBF0F9108950F930FB707
:1003A4000F9303E46DDF09E66BDF03E669DF08E61C
:1003B40067DF01E665DF00E263DF0EE661DF0FE67B
:1003C4005FDF03E65DDF0F910FBF0F9108950F9379
:1003D4001F932F930FB70F930FE214E06DDE0FE21C
:1003E40018E06ADE0FE214E067DE04E092DE0BE35D
:1003F40014E062DE0FE218E05FDE07E210E15CDE8B
:100404000FE410E159DE0BE318E056DE04E081DE70
:100414000FE414E051DE08E07CDE0EE518E04CDE6B
:1004240004E077DE07E414E047DE04E072DE0FE365
:1004340014E042DE04E06DDE0FE314E03DDE07E489
:1004440018E03ADE0FE418E037DE0FE218E034DE9D
:1004540007E218E031DE03E218E02EDE0CE214E0DD
:100464002BDE07E214E028DE04E053DE0FE214E0A2
:1004740023DE04E04EDE0BE314E01EDE05E314E0AD
:100484001BDE0FE314E018DE08E043DE0BE318E0A4
:1004940013DE04E03EDE0FE414E00EDE0EE518E0A9
:1004A4000BDE04E036DE07E414E006DE04E031DEB1
:1004B4000FE314E001DE04E02CDE0FE314E0FCDDC6
:1004C40007E418E0F9DD0FE418E0F6DD0FE218E0C8
:1004D400F3DD07E218E0F0DD03E218E0EDDD0CE205
:1004E40014E0EADD07E214E0E7DD04E012DE0FE2E7
:1004F40014E0E2DD04E00DDE0BE314E0DDDD05E3F2
:1005040014E0DADD0FE314E0D7DD08E002DE08E0F2
:1005140000DE07E214E0D0DD07E214E0CDDD0CE2FA
:1005240014E0CADD05E318E0C7DD0FE214E0C4DD22
:1005340004E0EFDD0FE414E0BFDD07E414E0BCDD0C
:100544000BE314E0B9DD04E0E4DD07E414E0B4DD1A
:100554000BE314E0B1DD05E314E0AEDD08E0D9DD22
:1005640007E214E0A9DD07E214E0A6DD0CE214E0E2
:10057400A3DD05E318E0A0DD0FE214E09DDD04E057
:10058400C8DD0CE214E098DD04E0C3DD0CE214E005
:1005940093DD0CE210E190DD08E0BBDD07E214E03E
:1005A4008BDD07E214E088DD0CE214E085DD05E371
:1005B40018E082DD0FE214E07FDD04E0AADD0FE441
:1005C40014E07ADD07E414E077DD0BE314E074DD76
:1005D40004E09FDD07E414E06FDD0BE314E06CDD61
:1005E40005E314E069DD08E094DD0FE218E064DD62
:1005F40004E08FDD05E314E05FDD08E08ADD0BE352
:1006040010E15ADD00E185DD08E083DD07E214E056
:1006140053DD07E214E050DD0CE214E04DDD05E3A8
:1006240018E04ADD0FE214E047DD04E072DD0FE478
:1006340014E042DD07E414E03FDD0BE314E03CDDAD
:1006440004E067DD07E414E037DD0BE314E034DD98
:1006540005E314E031DD08E05CDD07E214E02CDDA5
:1006640007E214E029DD0CE214E026DD05E318E0DE
:1006740023DD0FE214E020DD04E04BDD0CE214E0A6
:100684001BDD04E046DD0CE214E016DD0CE210E1B3
:1006940013DD08E03EDD07E214E00EDD07E214E0BE
:1006A4000BDD0CE214E008DD05E318E005DD0FE2E4
:1006B40014E002DD04E02DDD0FE414E0FDDC07E4CA
:1006C40014E0FADC0BE314E0F7DC04E022DD07E4D9
:1006D40014E0F2DC0BE314E0EFDC05E314E0ECDC03
:1006E40008E017DD0FE218E0E7DC04E012DD05E3C3
:1006F40014E0E2DC08E00DDD0BE310E1DDDC00E1F9
:1007040008DD0BE314E0D8DC0BE318E0D5DC0BE3E5
:1007140014E0D2DC04E0FDDC0BE314E0CDDC05E303
:1007240018E0CADC0FE214E0C7DC0BE318E0C4DC19
:1007340007E414E0C1DC0FE418E0BEDC0F910FBF46
:100744002F911F910F9108950F931F932F930FB71C
:100754000F930FE410E1B0DC0FE410E1ADDC0FE423
:1007640010E1AADC0EE51CE0A7DC0FE314E0A4DC36
:100774000FE410E1A1DC0EE51CE09EDC0FE314E0C5
:100784009BDC0FE410E298DC05E310E195DC05E363
:1007940010E192DC05E310E18FDC0FE21CE08CDC5D
:1007A4000FE314E089DC0FE410E186DC0EE51CE0C5
:1007B40083DC0FE314E080DC0FE410E27DDC07E26D
:1007C40010E17ADC0FE41CE077DC0FE414E074DC65
:1007D40007E210E171DC0CE218E06EDC0CE214E0DC
:1007E4006BDC0FE214E068DC05E314E065DC0FE287
:1007F40014E062DC08E08DDC0FE418E05DDC0BE360
:1008040010E15ADC0BE31CE057DC0FE314E054DC8A
:100814000FE314E051DC07E414E04EDC0FE318E0CE
:100824004BDC08E076DC0EE518E046DC0FE410E172
:1008340043DC0EE51CE040DC0FE414E03DDC0FE398
:1008440010E13ADC0FE41CE037DC0FE314E034DCA5
:1008540005E310E231DC07E210E12EDC0FE41CE0DA
:100864002BDC0FE414E028DC07E210E125DC0CE2C9
:1008740018E022DC0CE214E01FDC0FE214E01CDCC4
:1008840005E314E019DC0FE218E016DC08E041DCB3
:100894000FE418E011DC0BE310E10EDC0BE31CE0C9
:1008A4000BDC0FE314E008DC0FE314E005DC07E4E1
:1008B40014E002DC0FE318E0FFDB08E02ADC0EE5BD
:1008C40018E0FADB0FE410E1F7DB0EE51CE0F4DBE3
:1008D4000FE314E0F1DB0FE410E1EEDB0EE51CE0C6
:1008E400EBDB0FE314E0E8DB0FE410E2E5DB0F9150
:1008F4000FBF2F911F910F9108950F931F932F9363
:100904000FB70F930FE41CE0D7DB07E414E0D4DB4C
:100914000FE418E0D1DB0EE518E1CEDB0FE41CE0B8
:10092400CBDB07E414E0C8DB0FE418E0C5DB0EE51D
:1009340018E1C2DB05E310E1BFDB05E318E0BCDB33
:100944000FE310E1B9DB0FE318E0B6DB0BE310E1D2
:10095400B3DB0BE318E0B0DB0FE418E1ADDB22E01E
:1009640007E410E1A9DB07E418E0A6DB0BE31CE0D5
:10097400A3DB0FE314E0A0DB07E418E09DDB0FE446
:100984001CE09ADB07E414E097DB0FE418E094DB47
:100994000EE510E191DB0FE418E08EDB2A9501F7F8
:1009A400000005E310E188DB05E318E085DB0CE2D9
:1009B4001CE082DB05E314E07FDB0FE318E07CDB63
:1009C4000BE318E179DB0BE318E076DB00E1A1DB54
:1009D4000BE31CE071DB0FE414E06EDB0EE518E0C2
:1009E4006BDB0FE41CE068DB09E514E065DB0AE679
:1009F40018E062DB07E718E15FDB07E718E05CDB80
:100A040000E187DB0F910FBF2F911F910F91089584
:00000001FF
