:020000020000FC
:0200000029C015
:0200040097C0A3
:10000800CFC018951895189518951895189518959E
:0E00180018951895189518951895189518951F
:10005400000000000000000044E04EBF4FE54DBF2B
:1000640090E0BB9AC39802E009BFD4D004E636D02E
:100074000EE408D101E606D103E604D109E602D173
:1000840003E700D10EE6FED009E6FCD00AE6FAD07A
:1000940000E2F8D003E5F6D007E5F4D007E3F2D0A8
:1000A400A5D00000000078940000000028D40000CF
:1000B400000000000000FBCF2F932FB72F930CBF3D
:1000C4002CE123BF012F27D028E123BF20E028BB48
:1000D40006E40CD02F912FBF2F9108952F9324E184
:1000E4002A95F1F70A95D9F72F9108951F932F9325
:1000F4001FB71F9311272227239527FFFDCF1395A1
:1001040014FFF9CF0A951FB711FFF4CF1F911FBF3A
:100114002F911F9108951F931FB71F93102F02E370
:10012400E5DF1A95E1F700001F911FBF1F910895A5
:100134000F930FB70F93939592FD91E000B302FDD7
:1001440029C00AE0D3DF00B302FD24C0E2D00EE3ED
:1001540099D0092F0A9521F00A9521F00A9521F0EA
:10016400E9D004C004D102C01BD100C0BFD0092F04
:100174000A9521F00A9521F00A9521F0F8D004C0DF
:100184000FD102C0D7D000C000B302FD03C00AE003
:10019400ADDFFACF789400000000FDCF0F910FBFC0
:1001A4000F9118950F930FB70F9300B303FD0BC076
:1001B4000AE09CDF00B303FD06C000B303FD03C0E7
:1001C4000AE094DFFACF7894092F0A9521F00A9572
:1001D40021F00A9521F0FDD0F7CFB8D2F5CF8FD317
:1001E400F3CFF2CF0F910FBF0F9118950F938A9809
:1001F400929A8B98939A05B7077F077F02600E7FC8
:1002040004BF0BB7006800640BBF0AB7006C0ABFD9
:100214000F9108950F930FB70F93A09AA19AA29AE2
:10022400A39AA49AA59AA898A99808E25FDFA99A24
:10023400AA9AAB9AAC98AD98000006E0A99856DF4C
:10024400A99A00000AE0A99849DFA99A00000AE0E7
:10025400A99844DFA99AAA98000006E0A9983EDF6D
:100264000BE210D006E03ADF01E00CD002E03EDF02
:100274000FE008D006E032DFA89A0AE00F910FBF22
:100284000F9108951F931FB71F93102FA99A14FF5E
:10029400AA9814FDAA9A15FFAB9815FDAB9A16FF00
:1002A400AC9816FDAC9A17FFAD9817FDAD9A01E016
:1002B4000000A99813DFA99A10FFAA9810FDAA9A22
:1002C40011FFAB9811FDAB9A12FFAC9812FDAC9ADA
:1002D40013FFAD9813FDAD9A01E00000A998FEDE6E
:1002E4000AE0FCDE1F911FBF1F9108950F930FB703
:1002F4000F9304E6F3DEA89808E2F8DE00ECC2DF10
:1003040004E6ECDEA89A08E2F1DE0F910FBF0F912C
:1003140008950F930FB70F93A89808E2E7DE01E062
:10032400B1DF04E6DBDEA89A08E2E0DE0F910FBF3E
:100334000F9108950F930FB70F930DE4A3DF01E618
:10034400A1DF02E79FDF09E69DDF0FE69BDF00E206
:1003540099DF04E797DF08E695DF05E693DF0DE60E
:1003640091DF05E68FDF0F910FBF0F9108950F9373
:100374000FB70F9303E586DF04E784DF01E682DF2E
:1003840002E780DF00E27EDF07E57CDF01E67ADF5B
:1003940002E778DF03E776DF0F910FBF0F9108952F
:1003A4000F930FB70F9303E46DDF09E66BDF03E6EA
:1003B40069DF08E667DF01E665DF00E263DF0EE67A
:1003C40061DF0FE65FDF03E65DDF0F910FBF0F9183
:1003D40008950F931F932F930FB70F930FE214E019
:1003E4006BDE0FE218E068DE0FE214E065DE04E085
:1003F40092DE0BE314E060DE0FE218E05DDE07E25C
:1004040010E15ADE0FE410E157DE0BE318E054DE8E
:1004140004E081DE0FE414E04FDE08E07CDE0EE54C
:1004240018E04ADE04E077DE07E414E045DE04E089
:1004340072DE0FE314E040DE04E06DDE0FE314E04F
:100444003BDE07E418E038DE0FE418E035DE0FE2A7
:1004540018E032DE07E218E02FDE03E218E02CDEBB
:100464000CE214E029DE07E214E026DE04E053DEA9
:100474000FE214E021DE04E04EDE0BE314E01CDEA8
:1004840005E314E019DE0FE314E016DE08E043DEB2
:100494000BE318E011DE04E03EDE0FE414E00CDEB2
:1004A4000EE518E009DE04E036DE07E414E004DEBD
:1004B40004E031DE0FE314E0FFDD04E02CDE0FE3A3
:1004C40014E0FADD07E418E0F7DD0FE418E0F4DDEA
:1004D4000FE218E0F1DD07E218E0EEDD03E218E0D8
:1004E400EBDD0CE214E0E8DD07E214E0E5DD04E016
:1004F40012DE0FE214E0E0DD04E00DDE0BE314E0B5
:10050400DBDD05E314E0D8DD0FE314E0D5DD08E01E
:1005140002DE08E000DE07E214E0CEDD07E214E0CC
:10052400CBDD0CE214E0C8DD05E318E0C5DD0FE225
:1005340014E0C2DD04E0EFDD0FE414E0BDDD07E408
:1005440014E0BADD0BE314E0B7DD04E0E4DD07E416
:1005540014E0B2DD0BE314E0AFDD05E314E0ACDD41
:1005640008E0D9DD07E214E0A7DD07E214E0A4DD2A
:100574000CE214E0A1DD05E318E09EDD0FE214E0D7
:100584009BDD04E0C8DD0CE214E096DD04E0C3DD8D
:100594000CE214E091DD0CE210E18EDD08E0BBDD3D
:1005A40007E214E089DD07E214E086DD0CE214E0E2
:1005B40083DD05E318E080DD0FE214E07DDD04E077
:1005C400AADD0FE414E078DD07E414E075DD0BE345
:1005D40014E072DD04E09FDD07E414E06DDD0BE35D
:1005E40014E06ADD05E314E067DD08E094DD0FE262
:1005F40018E062DD04E08FDD05E314E05DDD08E072
:100604008ADD0BE310E158DD00E185DD08E083DDE0
:1006140007E214E051DD07E214E04EDD0CE214E0E1
:100624004BDD05E318E048DD0FE214E045DD04E0AE
:1006340072DD0FE414E040DD07E414E03DDD0BE37C
:1006440014E03ADD04E067DD07E414E035DD0BE394
:1006540014E032DD05E314E02FDD08E05CDD07E2A1
:1006640014E02ADD07E214E027DD0CE214E024DDC7
:1006740005E318E021DD0FE214E01EDD04E04BDDAC
:100684000CE214E019DD04E046DD0CE214E014DDB4
:100694000CE210E111DD08E03EDD07E214E00CDDC0
:1006A40007E214E009DD0CE214E006DD05E318E0DE
:1006B40003DD0FE214E000DD04E02DDD0FE414E0BF
:1006C400FBDC07E414E0F8DC0BE314E0F5DC04E005
:1006D40022DD07E414E0F0DC0BE314E0EDDC05E3D9
:1006E40014E0EADC08E017DD0FE218E0E5DC04E0E2
:1006F40012DD05E314E0E0DC08E00DDD0BE310E1BE
:10070400DBDC00E108DD0BE314E0D6DC0BE318E0EE
:10071400D3DC0BE314E0D0DC04E0FDDC0BE314E0F9
:10072400CBDC05E318E0C8DC0FE214E0C5DC0BE326
:1007340018E0C2DC07E414E0BFDC0FE418E0BCDC22
:100744000F910FBF2F911F910F9108950F931F9336
:100754002F930FB70F930FE410E1AEDC0FE410E119
:10076400ABDC0FE410E1A8DC0EE51CE0A5DC0FE334
:1007740014E0A2DC0FE410E19FDC0EE51CE09CDC3D
:100784000FE314E099DC0FE410E296DC05E310E1DA
:1007940093DC05E310E190DC05E310E18DDC0FE26E
:1007A4001CE08ADC0FE314E087DC0FE410E184DC56
:1007B4000EE51CE081DC0FE314E07EDC0FE410E2C4
:1007C4007BDC07E210E178DC0FE41CE075DC0FE46D
:1007D40014E072DC07E210E16FDC0CE218E06CDC80
:1007E4000CE214E069DC0FE214E066DC05E314E0DB
:1007F40063DC0FE214E060DC08E08DDC0FE418E059
:100804005BDC0BE310E158DC0BE31CE055DC0FE38D
:1008140014E052DC0FE314E04FDC07E414E04CDC9A
:100824000FE318E049DC08E076DC0EE518E044DC70
:100834000FE410E141DC0EE51CE03EDC0FE414E0C3
:100844003BDC0FE310E138DC0FE41CE035DC0FE3A4
:1008540014E032DC05E310E22FDC07E210E12CDCCB
:100864000FE41CE029DC0FE414E026DC07E210E1CD
:1008740023DC0CE218E020DC0CE214E01DDC0FE2C7
:1008840014E01ADC05E314E017DC0FE218E014DCD2
:1008940008E041DC0FE418E00FDC0BE310E10CDCB2
:1008A4000BE31CE009DC0FE314E006DC0FE314E0C7
:1008B40003DC07E414E000DC0FE318E0FDDB08E0F0
:1008C4002ADC0EE518E0F8DB0FE410E1F5DB0EE5B9
:1008D4001CE0F2DB0FE314E0EFDB0FE410E1ECDBF0
:1008E4000EE51CE0E9DB0FE314E0E6DB0FE410E2C5
:1008F400E3DB0F910FBF2F911F910F9108950F9379
:100904001F932F930FB70F930FE41CE0D5DB07E47D
:1009140014E0D2DB0FE418E0CFDB0EE518E1CCDB0A
:100924000FE41CE0C9DB07E414E0C6DB0FE418E0C5
:10093400C3DB0EE518E1C0DB05E310E1BDDB05E335
:1009440018E0BADB0FE310E1B7DB0FE318E0B4DB28
:100954000BE310E1B1DB0BE318E0AEDB0FE418E1CD
:10096400ABDB22E007E410E1A7DB07E418E0A4DB3B
:100974000BE31CE0A1DB0FE314E09EDB07E418E0CB
:100984009BDB0FE41CE098DB07E414E095DB0FE449
:1009940018E092DB0EE510E18FDB0FE418E08CDB4E
:1009A4002A9501F7000005E310E186DB05E318E072
:1009B40083DB0CE21CE080DB05E314E07DDB0FE36A
:1009C40018E07ADB0BE318E177DB0BE318E074DB68
:1009D40000E1A1DB0BE31CE06FDB0FE414E06CDB54
:1009E4000EE518E069DB0FE41CE066DB09E514E0C2
:1009F40063DB0AE618E060DB07E718E15DDB07E785
:100A040018E05ADB00E187DB0F910FBF2F911F9194
:040A14000F910895A1
:00000001FF
