:020000020000FC
:1000000010C0189518951895189518951895189565
:100010001895189518951895189518951895189578
:100020001895000000000000000044E04EBF4FE5BE
:100030004DBFBB9AC398BB9A02E009BF56D00EE3EE
:1000400086D000E284D003E482D009E680D003E6C3
:100050007ED008E67CD001E67AD0A9D0000000006E
:1000600000000000FBCF0F930FB70F9306B303FD03
:10007000C39803FFC39A0F910FBF0F9118952F9349
:100080002FB72F930CBF2CE123BF012F21D028E1E4
:1000900023BF20E026BB06E40CD02F912FBF2F9169
:1000A00008952F9324E12A95F1F70A95D9F72F9116
:1000B00008951F932F9311272227239527FFFDCF04
:1000C000139514FFF9CF0A95B1F72F911F91089559
:1000D0001F931FB71F93102F02E3EBDF1A95E1F771
:1000E00000001F911FBF1F910895889A899A8A9ACC
:1000F0008B9A8C9A8D9A9098919808E2DADF919A6F
:10010000929A939A94989598000006E09198D1DF7E
:10011000919A00000AE09198C4DF919A00000AE0E9
:100120009198BFDF919A9298000006E09198B9DF0C
:100130000BE20DD006E0B5DF01E009D002E0B9DF47
:100140000FE005D006E0ADDF909A0AE008951F9316
:10015000102F919A14FF929814FD929A15FF93987C
:1001600015FD939A16FF949816FD949A17FF95988B
:1001700017FD959A01E00000919893DF919A10FF86
:10018000929810FD929A11FF939811FD939A12FF85
:10019000949812FD949A13FF959813FD959A01E097
:1001A000000091987EDF0AE07CDF1F9108950F9395
:1001B0001F932F930FB70F930FE41CE060DF07E44A
:1001C00014E05DDF0FE418E05ADF0EE518E157DFB9
:1001D0000FE41CE054DF07E414E051DF0FE418E003
:1001E0004EDF0EE518E14BDF05E310E148DF05E3E4
:1001F00018E045DF0FE310E142DF0FE318E03FDFD7
:100200000BE310E13CDF0BE318E039DF0FE418E10A
:1002100036DF22E007E410E132DF07E418E02FDFE9
:100220000BE31CE02CDF0FE314E029DF07E418E008
:1002300026DF0FE41CE023DF07E414E020DF0FE4F7
:1002400018E01DDF0EE510E11ADF0FE418E017DFFC
:100250002A9501F7000005E310E111DF05E318E03E
:100260000EDF0CE21CE00BDF05E314E008DF0FE318
:1002700018E005DF0BE318E102DF0BE318E0FFDE17
:1002800000E126DF0BE31CE0FADE0FE414E0F7DE0A
:100290000EE518E0F4DE0FE41CE0F1DE09E514E001
:1002A000EEDE0AE618E0EBDE07E718E1E8DE07E736
:1002B00018E0E5DE00E10CDF0F910FBF2F911F91D9
:0402C0000F910895FD
:00000001FF
