:020000020000FC
:1000000010C0189518951895189518951895189565
:100010001895189518951895189518951895189578
:100020001895000000000000000044E04EBF4FE5BE
:100030004DBFBB9AC398BB9A02E009BF0FE41CE016
:100040008ED007E414E08BD00FE418E088D00EE5E2
:1000500018E185D00FE41CE082D007E414E07FD0E3
:100060000FE418E07CD00EE518E179D005E310E14B
:1000700076D005E318E073D00FE310E170D00FE302
:1000800018E06DD00BE310E16AD00BE318E067D005
:100090000FE418E164D022E007E410E160D007E447
:1000A00018E05DD00BE31CE05AD00FE314E057D00A
:1000B00007E418E054D00FE41CE051D007E414E04A
:1000C0004ED00FE418E04BD00EE510E148D00FE41D
:1000D00018E045D02A9501F7000005E310E13FD074
:1000E00005E318E03CD00CE21CE039D005E314E055
:1000F00036D00FE318E033D00BE318E130D00BE338
:1001000018E02DD000E154D00BE31CE028D00FE420
:1001100014E025D00EE518E022D00FE41CE01FD03B
:1001200009E514E01CD00AE618E019D007E718E149
:1001300016D007E718E013D000E13AD00000000025
:1001400000000000FBCF0F930FB70F9306B303FD22
:10015000C39803FFC39A0F910FBF0F9118952F9368
:100160002FB72F930CBF2CE123BF012F21D028E103
:1001700023BF20E026BB06E40CD02F912FBF2F9188
:1001800008952F9324E12A95F1F70A95D9F72F9135
:1001900008951F932F9311272227239527FFFDCF23
:1001A000139514FFF9CF0A95B1F72F911F91089578
:1001B0001F931FB71F93102F02E3EBDF1A95E1F790
:0A01C00000001F911FBF1F9108955A
:00000001FF
