:020000020000FC
:1000000010C0189518951895189518951895189565
:100010001895189518951895189518951895189578
:100020001895000000000000000044E04EBF4FE5BE
:100030004DBFBB9AC398BB9A02E009BF47D00000EE
:10004000000000000000FBCF0F930FB70F9306B323
:1000500003FDC39803FFC39A0F910FBF0F9118952B
:100060002F932FB72F930CBF2CE123BF012F21D04B
:1000700028E123BF20E026BB06E40CD02F912FBF40
:100080002F9108952F9324E12A95F1F70A95D9F736
:100090002F9108951F932F9311272227239527FF30
:1000A000FDCF139514FFF9CF0A95B1F72F911F914A
:1000B00008951F931FB71F93102F02E3EBDF1A95CC
:1000C000E1F700001F911FBF1F9108950F931F9329
:1000D0002F930FB70F930FE41CE0C2DF07E414E087
:1000E000BFDF0FE418E0BCDF0EE518E1B9DF0FE475
:1000F0001CE0B6DF07E414E0B3DF0FE418E0B0DF84
:100100000EE518E1ADDF05E310E1AADF05E318E035
:10011000A7DF0FE310E1A4DF0FE318E0A1DF0BE39B
:1001200010E19EDF0BE318E09BDF0FE418E198DF9E
:1001300022E007E410E194DF07E418E091DF0BE32D
:100140001CE08EDF0FE314E08BDF07E418E088DFAC
:100150000FE41CE085DF07E414E082DF0FE418E021
:100160007FDF0EE510E17CDF0FE418E079DF2A95F0
:1001700001F7000005E310E173DF05E318E070DF2D
:100180000CE21CE06DDF05E314E06ADF0FE318E02A
:1001900067DF0BE318E164DF0BE318E061DF00E1E8
:1001A00088DF0BE31CE05CDF0FE414E059DF0EE5B1
:1001B00018E056DF0FE41CE053DF09E514E050DFE0
:1001C0000AE618E04DDF07E718E14ADF07E718E025
:1001D00047DF00E16EDF0F910FBF2F911F910F914D
:0201E000089580
:00000001FF
